{
  "contractName": "Main",
  "abi": [
    {
      "constant": false,
      "inputs": [
        {
          "name": "location",
          "type": "string"
        },
        {
          "name": "numGuests",
          "type": "uint256"
        },
        {
          "name": "startDate",
          "type": "string"
        },
        {
          "name": "endDate",
          "type": "string"
        },
        {
          "name": "price",
          "type": "uint256"
        },
        {
          "name": "passCode",
          "type": "string"
        },
        {
          "name": "_address",
          "type": "address"
        }
      ],
      "name": "createRentable",
      "outputs": [],
      "payable": false,
      "stateMutability": "nonpayable",
      "type": "function",
      "signature": "0x71830ae2"
    },
    {
      "constant": false,
      "inputs": [
        {
          "name": "startDate",
          "type": "string"
        },
        {
          "name": "endDate",
          "type": "string"
        },
        {
          "name": "id",
          "type": "uint256"
        },
        {
          "name": "_address",
          "type": "address"
        }
      ],
      "name": "rent",
      "outputs": [],
      "payable": false,
      "stateMutability": "nonpayable",
      "type": "function",
      "signature": "0xd83c0c1d"
    },
    {
      "constant": false,
      "inputs": [
        {
          "name": "_index",
          "type": "uint256"
        }
      ],
      "name": "takeDownRentable",
      "outputs": [],
      "payable": false,
      "stateMutability": "nonpayable",
      "type": "function",
      "signature": "0x0c54715b"
    },
    {
      "constant": true,
      "inputs": [
        {
          "name": "_index",
          "type": "uint256"
        }
      ],
      "name": "getRents",
      "outputs": [
        {
          "components": [
            {
              "name": "location",
              "type": "string"
            },
            {
              "name": "numGuests",
              "type": "uint256"
            },
            {
              "name": "startDate",
              "type": "string"
            },
            {
              "name": "endDate",
              "type": "string"
            },
            {
              "name": "price",
              "type": "uint256"
            },
            {
              "name": "expired",
              "type": "bool"
            },
            {
              "name": "passCode",
              "type": "string"
            },
            {
              "name": "id",
              "type": "uint256"
            },
            {
              "name": "renterAddress",
              "type": "address"
            },
            {
              "name": "Rents",
              "type": "uint256[][]"
            }
          ],
          "name": "",
          "type": "tuple"
        }
      ],
      "payable": false,
      "stateMutability": "view",
      "type": "function",
      "signature": "0x7c8e31b4"
    },
    {
      "constant": true,
      "inputs": [
        {
          "name": "_index",
          "type": "uint256"
        },
        {
          "name": "_address",
          "type": "address"
        }
      ],
      "name": "getPersonalRents",
      "outputs": [
        {
          "components": [
            {
              "name": "startDate",
              "type": "string"
            },
            {
              "name": "endDate",
              "type": "string"
            },
            {
              "name": "location",
              "type": "string"
            },
            {
              "name": "passCode",
              "type": "string"
            }
          ],
          "name": "",
          "type": "tuple"
        }
      ],
      "payable": false,
      "stateMutability": "view",
      "type": "function",
      "signature": "0x8762e6cd"
    },
    {
      "constant": true,
      "inputs": [
        {
          "name": "_index",
          "type": "uint256"
        },
        {
          "name": "_address",
          "type": "address"
        }
      ],
      "name": "getPersonalRentables",
      "outputs": [
        {
          "components": [
            {
              "name": "location",
              "type": "string"
            },
            {
              "name": "numGuests",
              "type": "uint256"
            },
            {
              "name": "startDate",
              "type": "string"
            },
            {
              "name": "endDate",
              "type": "string"
            },
            {
              "name": "price",
              "type": "uint256"
            },
            {
              "name": "expired",
              "type": "bool"
            },
            {
              "name": "passCode",
              "type": "string"
            },
            {
              "name": "id",
              "type": "uint256"
            },
            {
              "name": "renterAddress",
              "type": "address"
            },
            {
              "name": "Rents",
              "type": "uint256[][]"
            }
          ],
          "name": "",
          "type": "tuple"
        }
      ],
      "payable": false,
      "stateMutability": "view",
      "type": "function",
      "signature": "0x461814fe"
    },
    {
      "constant": true,
      "inputs": [],
      "name": "getRentCount",
      "outputs": [
        {
          "name": "",
          "type": "uint256"
        }
      ],
      "payable": false,
      "stateMutability": "view",
      "type": "function",
      "signature": "0x2b4f3959"
    },
    {
      "constant": true,
      "inputs": [
        {
          "name": "_address",
          "type": "address"
        }
      ],
      "name": "getPersonalRentCount",
      "outputs": [
        {
          "name": "",
          "type": "uint256"
        }
      ],
      "payable": false,
      "stateMutability": "view",
      "type": "function",
      "signature": "0xfc4b8a36"
    },
    {
      "constant": true,
      "inputs": [
        {
          "name": "_address",
          "type": "address"
        }
      ],
      "name": "getPersonalRentablesCount",
      "outputs": [
        {
          "name": "",
          "type": "uint256"
        }
      ],
      "payable": false,
      "stateMutability": "view",
      "type": "function",
      "signature": "0x6775d513"
    }
  ],
  "bytecode": "0x608060405234801561001057600080fd5b50611e61806100206000396000f3fe608060405260043610610099576000357c0100000000000000000000000000000000000000000000000000000000900463ffffffff1680630c54715b1461009e5780632b4f3959146100c7578063461814fe146100f25780636775d5131461012f57806371830ae21461016c5780637c8e31b4146101955780638762e6cd146101d2578063d83c0c1d1461020f578063fc4b8a3614610238575b600080fd5b3480156100aa57600080fd5b506100c560048036036100c09190810190611964565b610275565b005b3480156100d357600080fd5b506100dc6102b1565b6040516100e99190611ca7565b60405180910390f35b3480156100fe57600080fd5b506101196004803603610114919081019061198d565b6102bd565b6040516101269190611c63565b60405180910390f35b34801561013b57600080fd5b50610156600480360361015191908101906117aa565b6106ea565b6040516101639190611ca7565b60405180910390f35b34801561017857600080fd5b50610193600480360361018e9190810190611866565b610736565b005b3480156101a157600080fd5b506101bc60048036036101b79190810190611964565b610a81565b6040516101c99190611c63565b60405180910390f35b3480156101de57600080fd5b506101f960048036036101f4919081019061198d565b610e70565b6040516102069190611c85565b60405180910390f35b34801561021b57600080fd5b50610236600480360361023191908101906117d3565b61116e565b005b34801561024457600080fd5b5061025f600480360361025a91908101906117aa565b61145f565b60405161026c9190611ca7565b60405180910390f35b600160008281548110151561028657fe5b90600052602060002090600a020160050160006101000a81548160ff02191690831515021790555050565b60008080549050905090565b6102c56114ab565b600160008373ffffffffffffffffffffffffffffffffffffffff1673ffffffffffffffffffffffffffffffffffffffff1681526020019081526020016000208381548110151561031157fe5b90600052602060002090600a02016101406040519081016040529081600082018054600181600116156101000203166002900480601f0160208091040260200160405190810160405280929190818152602001828054600181600116156101000203166002900480156103c55780601f1061039a576101008083540402835291602001916103c5565b820191906000526020600020905b8154815290600101906020018083116103a857829003601f168201915b5050505050815260200160018201548152602001600282018054600181600116156101000203166002900480601f0160208091040260200160405190810160405280929190818152602001828054600181600116156101000203166002900480156104715780601f1061044657610100808354040283529160200191610471565b820191906000526020600020905b81548152906001019060200180831161045457829003601f168201915b50505050508152602001600382018054600181600116156101000203166002900480601f0160208091040260200160405190810160405280929190818152602001828054600181600116156101000203166002900480156105135780601f106104e857610100808354040283529160200191610513565b820191906000526020600020905b8154815290600101906020018083116104f657829003601f168201915b50505050508152602001600482015481526020016005820160009054906101000a900460ff16151515158152602001600682018054600181600116156101000203166002900480601f0160208091040260200160405190810160405280929190818152602001828054600181600116156101000203166002900480156105da5780601f106105af576101008083540402835291602001916105da565b820191906000526020600020905b8154815290600101906020018083116105bd57829003601f168201915b50505050508152602001600782015481526020016008820160009054906101000a900473ffffffffffffffffffffffffffffffffffffffff1673ffffffffffffffffffffffffffffffffffffffff1673ffffffffffffffffffffffffffffffffffffffff16815260200160098201805480602002602001604051908101604052809291908181526020016000905b828210156106da578382906000526020600020018054806020026020016040519081016040528092919081815260200182805480156106c657602002820191906000526020600020905b8154815260200190600101908083116106b2575b505050505081526020019060010190610668565b5050505081525050905092915050565b6000600160008373ffffffffffffffffffffffffffffffffffffffff1673ffffffffffffffffffffffffffffffffffffffff168152602001908152602001600020805490509050919050565b60606107406114ab565b610140604051908101604052808a815260200189815260200188815260200187815260200186815260200160001515815260200185815260200160008054905081526020018473ffffffffffffffffffffffffffffffffffffffff1681526020018381525090506000819080600181540180825580915050906001820390600052602060002090600a02016000909192909190915060008201518160000190805190602001906107f1929190611517565b50602082015181600101556040820151816002019080519060200190610818929190611517565b506060820151816003019080519060200190610835929190611517565b506080820151816004015560a08201518160050160006101000a81548160ff02191690831515021790555060c082015181600601908051906020019061087c929190611517565b5060e082015181600701556101008201518160080160006101000a81548173ffffffffffffffffffffffffffffffffffffffff021916908373ffffffffffffffffffffffffffffffffffffffff1602179055506101208201518160090190805190602001906108ec929190611597565b50505050600160008473ffffffffffffffffffffffffffffffffffffffff1673ffffffffffffffffffffffffffffffffffffffff168152602001908152602001600020819080600181540180825580915050906001820390600052602060002090600a0201600090919290919091506000820151816000019080519060200190610977929190611517565b5060208201518160010155604082015181600201908051906020019061099e929190611517565b5060608201518160030190805190602001906109bb929190611517565b506080820151816004015560a08201518160050160006101000a81548160ff02191690831515021790555060c0820151816006019080519060200190610a02929190611517565b5060e082015181600701556101008201518160080160006101000a81548173ffffffffffffffffffffffffffffffffffffffff021916908373ffffffffffffffffffffffffffffffffffffffff160217905550610120820151816009019080519060200190610a72929190611597565b50505050505050505050505050565b610a896114ab565b600082815481101515610a9857fe5b90600052602060002090600a02016101406040519081016040529081600082018054600181600116156101000203166002900480601f016020809104026020016040519081016040528092919081815260200182805460018160011615610100020316600290048015610b4c5780601f10610b2157610100808354040283529160200191610b4c565b820191906000526020600020905b815481529060010190602001808311610b2f57829003601f168201915b5050505050815260200160018201548152602001600282018054600181600116156101000203166002900480601f016020809104026020016040519081016040528092919081815260200182805460018160011615610100020316600290048015610bf85780601f10610bcd57610100808354040283529160200191610bf8565b820191906000526020600020905b815481529060010190602001808311610bdb57829003601f168201915b50505050508152602001600382018054600181600116156101000203166002900480601f016020809104026020016040519081016040528092919081815260200182805460018160011615610100020316600290048015610c9a5780601f10610c6f57610100808354040283529160200191610c9a565b820191906000526020600020905b815481529060010190602001808311610c7d57829003601f168201915b50505050508152602001600482015481526020016005820160009054906101000a900460ff16151515158152602001600682018054600181600116156101000203166002900480601f016020809104026020016040519081016040528092919081815260200182805460018160011615610100020316600290048015610d615780601f10610d3657610100808354040283529160200191610d61565b820191906000526020600020905b815481529060010190602001808311610d4457829003601f168201915b50505050508152602001600782015481526020016008820160009054906101000a900473ffffffffffffffffffffffffffffffffffffffff1673ffffffffffffffffffffffffffffffffffffffff1673ffffffffffffffffffffffffffffffffffffffff16815260200160098201805480602002602001604051908101604052809291908181526020016000905b82821015610e6157838290600052602060002001805480602002602001604051908101604052809291908181526020018280548015610e4d57602002820191906000526020600020905b815481526020019060010190808311610e39575b505050505081526020019060010190610def565b50505050815250509050919050565b610e786115f7565b600260008373ffffffffffffffffffffffffffffffffffffffff1673ffffffffffffffffffffffffffffffffffffffff16815260200190815260200160002083815481101515610ec457fe5b906000526020600020906004020160806040519081016040529081600082018054600181600116156101000203166002900480601f016020809104026020016040519081016040528092919081815260200182805460018160011615610100020316600290048015610f775780601f10610f4c57610100808354040283529160200191610f77565b820191906000526020600020905b815481529060010190602001808311610f5a57829003601f168201915b50505050508152602001600182018054600181600116156101000203166002900480601f0160208091040260200160405190810160405280929190818152602001828054600181600116156101000203166002900480156110195780601f10610fee57610100808354040283529160200191611019565b820191906000526020600020905b815481529060010190602001808311610ffc57829003601f168201915b50505050508152602001600282018054600181600116156101000203166002900480601f0160208091040260200160405190810160405280929190818152602001828054600181600116156101000203166002900480156110bb5780601f10611090576101008083540402835291602001916110bb565b820191906000526020600020905b81548152906001019060200180831161109e57829003601f168201915b50505050508152602001600382018054600181600116156101000203166002900480601f01602080910402602001604051908101604052809291908181526020018280546001816001161561010002031660029004801561115d5780601f106111325761010080835404028352916020019161115d565b820191906000526020600020905b81548152906001019060200180831161114057829003601f168201915b505050505081525050905092915050565b606060008381548110151561117f57fe5b90600052602060002090600a02016000018054600181600116156101000203166002900480601f0160208091040260200160405190810160405280929190818152602001828054600181600116156101000203166002900480156112245780601f106111f957610100808354040283529160200191611224565b820191906000526020600020905b81548152906001019060200180831161120757829003601f168201915b50505050509050606060008481548110151561123c57fe5b90600052602060002090600a02016006018054600181600116156101000203166002900480601f0160208091040260200160405190810160405280929190818152602001828054600181600116156101000203166002900480156112e15780601f106112b6576101008083540402835291602001916112e1565b820191906000526020600020905b8154815290600101906020018083116112c457829003601f168201915b505050505090506112f06115f7565b608060405190810160405280888152602001878152602001848152602001838152509050600260008573ffffffffffffffffffffffffffffffffffffffff1673ffffffffffffffffffffffffffffffffffffffff1681526020019081526020016000208190806001815401808255809150509060018203906000526020600020906004020160009091929091909150600082015181600001908051906020019061139b929190611517565b5060208201518160010190805190602001906113b8929190611517565b5060408201518160020190805190602001906113d5929190611517565b5060608201518160030190805190602001906113f2929190611517565b50505050606060008681548110151561140757fe5b90600052602060002090600a0201600901819080600181540180825580915050906001820390600052602060002001600090919290919091509080519060200190611453929190611620565b50505050505050505050565b6000600260008373ffffffffffffffffffffffffffffffffffffffff1673ffffffffffffffffffffffffffffffffffffffff168152602001908152602001600020805490509050919050565b6101406040519081016040528060608152602001600081526020016060815260200160608152602001600081526020016000151581526020016060815260200160008152602001600073ffffffffffffffffffffffffffffffffffffffff168152602001606081525090565b828054600181600116156101000203166002900490600052602060002090601f016020900481019282601f1061155857805160ff1916838001178555611586565b82800160010185558215611586579182015b8281111561158557825182559160200191906001019061156a565b5b509050611593919061166d565b5090565b8280548282559060005260206000209081019282156115e6579160200282015b828111156115e55782518290805190602001906115d5929190611692565b50916020019190600101906115b7565b5b5090506115f391906116df565b5090565b608060405190810160405280606081526020016060815260200160608152602001606081525090565b82805482825590600052602060002090810192821561165c579160200282015b8281111561165b578251825591602001919060010190611640565b5b509050611669919061166d565b5090565b61168f91905b8082111561168b576000816000905550600101611673565b5090565b90565b8280548282559060005260206000209081019282156116ce579160200282015b828111156116cd5782518255916020019190600101906116b2565b5b5090506116db919061166d565b5090565b61170891905b8082111561170457600081816116fb919061170b565b506001016116e5565b5090565b90565b5080546000825590600052602060002090810190611729919061166d565b50565b60006117388235611db8565b905092915050565b600082601f830112151561175357600080fd5b813561176661176182611cef565b611cc2565b9150808252602083016020830185838301111561178257600080fd5b61178d838284611dd4565b50505092915050565b60006117a28235611dca565b905092915050565b6000602082840312156117bc57600080fd5b60006117ca8482850161172c565b91505092915050565b600080600080608085870312156117e957600080fd5b600085013567ffffffffffffffff81111561180357600080fd5b61180f87828801611740565b945050602085013567ffffffffffffffff81111561182c57600080fd5b61183887828801611740565b935050604061184987828801611796565b925050606061185a8782880161172c565b91505092959194509250565b600080600080600080600060e0888a03121561188157600080fd5b600088013567ffffffffffffffff81111561189b57600080fd5b6118a78a828b01611740565b97505060206118b88a828b01611796565b965050604088013567ffffffffffffffff8111156118d557600080fd5b6118e18a828b01611740565b955050606088013567ffffffffffffffff8111156118fe57600080fd5b61190a8a828b01611740565b945050608061191b8a828b01611796565b93505060a088013567ffffffffffffffff81111561193857600080fd5b6119448a828b01611740565b92505060c06119558a828b0161172c565b91505092959891949750929550565b60006020828403121561197657600080fd5b600061198484828501611796565b91505092915050565b600080604083850312156119a057600080fd5b60006119ae85828601611796565b92505060206119bf8582860161172c565b9150509250929050565b6119d281611d70565b82525050565b60006119e382611d35565b808452602084019350836020820285016119fc85611d1b565b60005b84811015611a35578383038852611a17838351611a46565b9250611a2282611d56565b91506020880197506001810190506119ff565b508196508694505050505092915050565b6000611a5182611d40565b808452602084019350611a6383611d28565b60005b82811015611a9557611a79868351611c54565b611a8282611d63565b9150602086019550600181019050611a66565b50849250505092915050565b611aaa81611d82565b82525050565b6000611abb82611d4b565b808452611acf816020860160208601611de3565b611ad881611e16565b602085010191505092915050565b6000610140830160008301518482036000860152611b048282611ab0565b9150506020830151611b196020860182611c54565b5060408301518482036040860152611b318282611ab0565b91505060608301518482036060860152611b4b8282611ab0565b9150506080830151611b606080860182611c54565b5060a0830151611b7360a0860182611aa1565b5060c083015184820360c0860152611b8b8282611ab0565b91505060e0830151611ba060e0860182611c54565b50610100830151611bb56101008601826119c9565b50610120830151848203610120860152611bcf82826119d8565b9150508091505092915050565b60006080830160008301518482036000860152611bf98282611ab0565b91505060208301518482036020860152611c138282611ab0565b91505060408301518482036040860152611c2d8282611ab0565b91505060608301518482036060860152611c478282611ab0565b9150508091505092915050565b611c5d81611dae565b82525050565b60006020820190508181036000830152611c7d8184611ae6565b905092915050565b60006020820190508181036000830152611c9f8184611bdc565b905092915050565b6000602082019050611cbc6000830184611c54565b92915050565b6000604051905081810181811067ffffffffffffffff82111715611ce557600080fd5b8060405250919050565b600067ffffffffffffffff821115611d0657600080fd5b601f19601f8301169050602081019050919050565b6000602082019050919050565b6000602082019050919050565b600081519050919050565b600081519050919050565b600081519050919050565b6000602082019050919050565b6000602082019050919050565b6000611d7b82611d8e565b9050919050565b60008115159050919050565b600073ffffffffffffffffffffffffffffffffffffffff82169050919050565b6000819050919050565b6000611dc382611d8e565b9050919050565b6000819050919050565b82818337600083830152505050565b60005b83811015611e01578082015181840152602081019050611de6565b83811115611e10576000848401525b50505050565b6000601f19601f830116905091905056fea265627a7a72305820f10f94208e18bae2d54c487622e9cf8cb21109336a35cd424154b93488890dca6c6578706572696d656e74616cf50037",
  "source": "// SPDX-License-Identifier: MIT\npragma solidity >= 0.4.21 <0.7.0;\npragma experimental ABIEncoderV2;\n\ncontract Main {\n    \n\n    //make a constructor that saves the creator to a variable\n    \n    struct RentInfo{\n        string location;\n        uint numGuests;\n        string startDate;\n        string endDate;\n        uint price;\n        bool expired;\n        string passCode;\n        uint id;\n        address renterAddress;\n        uint[][] Rents;\n        \n    }\n    \n    struct RentOutInfo{\n        string startDate;\n        string endDate;\n        string location;\n        string passCode;\n    }\n    \n    RentInfo[] Rents;\n    mapping(address => RentInfo[]) personalRentables;\n    mapping(address => RentOutInfo[]) personalRents;\n    \n    function createRentable(string memory location, uint numGuests, string memory startDate, string memory endDate, uint price, string memory passCode, address _address) public {\n        uint[][] memory emptyArr;\n        RentInfo memory rent = RentInfo(location, numGuests, startDate, endDate, price, false, passCode, Rents.length, _address, emptyArr);\n        Rents.push(rent);\n        personalRentables[_address].push(rent);\n    }\n    \n    function rent(string memory startDate, string memory endDate, uint id, address _address) public {\n        string memory location = Rents[id].location;\n        string memory passCode = Rents[id].passCode;\n        RentOutInfo memory filledRentOutInfo = RentOutInfo(startDate, endDate, location, passCode);\n        personalRents[_address].push(filledRentOutInfo);\n        \n        //Adjustments\n        uint[] memory arr; \n        Rents[id].Rents.push(arr);\n    }\n    \n    function takeDownRentable(uint _index) public {\n        Rents[_index].expired = true;\n    }\n    \n    function getRents(uint _index) public view returns (RentInfo memory) {\n        return (Rents[_index]);\n    }\n    \n    function getPersonalRents(uint _index, address _address) public view returns (RentOutInfo memory) {\n        return (personalRents[_address][_index]);\n    }\n    \n    function getPersonalRentables(uint _index, address _address) public view returns (RentInfo memory) {\n        return (personalRentables[_address][_index]);\n    }\n    \n    //Get counts\n    function getRentCount() public view returns (uint) {\n        return (Rents.length);\n    }\n    \n    function getPersonalRentCount(address _address) public view returns (uint) {\n        return (personalRents[_address].length);\n    }\n    \n    function getPersonalRentablesCount(address _address) public view returns (uint) {\n        return (personalRentables[_address].length);\n    }\n    \n}",
  "sourcePath": "c:/code/AtlasHacks/contracts/Main.sol",
  "compiler": {
    "name": "solc",
    "version": "0.5.0+commit.1d4f565a.Emscripten.clang"
  },
  "schemaVersion": "3.0.1",
  "updatedAt": "2020-06-27T18:52:32.278Z",
  "devdoc": {
    "methods": {}
  },
  "userdoc": {
    "methods": {}
  }
}