{
  "contractName": "Main",
  "abi": [
    {
      "constant": false,
      "inputs": [
        {
          "name": "location",
          "type": "string"
        },
        {
          "name": "numGuests",
          "type": "uint256"
        },
        {
          "name": "startDate",
          "type": "string"
        },
        {
          "name": "endDate",
          "type": "string"
        },
        {
          "name": "price",
          "type": "uint256"
        },
        {
          "name": "passCode",
          "type": "string"
        },
        {
          "name": "_address",
          "type": "address"
        }
      ],
      "name": "createRentable",
      "outputs": [],
      "payable": false,
      "stateMutability": "nonpayable",
      "type": "function",
      "signature": "0x71830ae2"
    },
    {
      "constant": false,
      "inputs": [
        {
          "name": "startDate",
          "type": "string"
        },
        {
          "name": "endDate",
          "type": "string"
        },
        {
          "name": "id",
          "type": "uint256"
        },
        {
          "name": "_address",
          "type": "address"
        }
      ],
      "name": "rent",
      "outputs": [],
      "payable": true,
      "stateMutability": "payable",
      "type": "function",
      "signature": "0xd83c0c1d"
    },
    {
      "constant": false,
      "inputs": [
        {
          "name": "_index",
          "type": "uint256"
        }
      ],
      "name": "takeDownRentable",
      "outputs": [],
      "payable": false,
      "stateMutability": "nonpayable",
      "type": "function",
      "signature": "0x0c54715b"
    },
    {
      "constant": true,
      "inputs": [
        {
          "name": "_index",
          "type": "uint256"
        }
      ],
      "name": "getRents",
      "outputs": [
        {
          "components": [
            {
              "name": "location",
              "type": "string"
            },
            {
              "name": "numGuests",
              "type": "uint256"
            },
            {
              "name": "startDate",
              "type": "string"
            },
            {
              "name": "endDate",
              "type": "string"
            },
            {
              "name": "price",
              "type": "uint256"
            },
            {
              "name": "expired",
              "type": "bool"
            },
            {
              "name": "passCode",
              "type": "string"
            },
            {
              "name": "id",
              "type": "uint256"
            },
            {
              "name": "renterAddress",
              "type": "address"
            },
            {
              "name": "Rents",
              "type": "string[][]"
            }
          ],
          "name": "",
          "type": "tuple"
        }
      ],
      "payable": false,
      "stateMutability": "view",
      "type": "function",
      "signature": "0x7c8e31b4"
    },
    {
      "constant": true,
      "inputs": [
        {
          "name": "_index",
          "type": "uint256"
        },
        {
          "name": "_address",
          "type": "address"
        }
      ],
      "name": "getPersonalRents",
      "outputs": [
        {
          "components": [
            {
              "name": "startDate",
              "type": "string"
            },
            {
              "name": "endDate",
              "type": "string"
            },
            {
              "name": "location",
              "type": "string"
            },
            {
              "name": "passCode",
              "type": "string"
            }
          ],
          "name": "",
          "type": "tuple"
        }
      ],
      "payable": false,
      "stateMutability": "view",
      "type": "function",
      "signature": "0x8762e6cd"
    },
    {
      "constant": true,
      "inputs": [
        {
          "name": "_index",
          "type": "uint256"
        },
        {
          "name": "_address",
          "type": "address"
        }
      ],
      "name": "getPersonalRentables",
      "outputs": [
        {
          "components": [
            {
              "name": "location",
              "type": "string"
            },
            {
              "name": "numGuests",
              "type": "uint256"
            },
            {
              "name": "startDate",
              "type": "string"
            },
            {
              "name": "endDate",
              "type": "string"
            },
            {
              "name": "price",
              "type": "uint256"
            },
            {
              "name": "expired",
              "type": "bool"
            },
            {
              "name": "passCode",
              "type": "string"
            },
            {
              "name": "id",
              "type": "uint256"
            },
            {
              "name": "renterAddress",
              "type": "address"
            },
            {
              "name": "Rents",
              "type": "string[][]"
            }
          ],
          "name": "",
          "type": "tuple"
        }
      ],
      "payable": false,
      "stateMutability": "view",
      "type": "function",
      "signature": "0x461814fe"
    },
    {
      "constant": true,
      "inputs": [],
      "name": "getRentCount",
      "outputs": [
        {
          "name": "",
          "type": "uint256"
        }
      ],
      "payable": false,
      "stateMutability": "view",
      "type": "function",
      "signature": "0x2b4f3959"
    },
    {
      "constant": true,
      "inputs": [
        {
          "name": "_address",
          "type": "address"
        }
      ],
      "name": "getPersonalRentCount",
      "outputs": [
        {
          "name": "",
          "type": "uint256"
        }
      ],
      "payable": false,
      "stateMutability": "view",
      "type": "function",
      "signature": "0xfc4b8a36"
    },
    {
      "constant": true,
      "inputs": [
        {
          "name": "_address",
          "type": "address"
        }
      ],
      "name": "getPersonalRentablesCount",
      "outputs": [
        {
          "name": "",
          "type": "uint256"
        }
      ],
      "payable": false,
      "stateMutability": "view",
      "type": "function",
      "signature": "0x6775d513"
    }
  ],
  "bytecode": "0x608060405234801561001057600080fd5b50612095806100206000396000f3fe608060405260043610610099576000357c0100000000000000000000000000000000000000000000000000000000900463ffffffff1680630c54715b1461009e5780632b4f3959146100c7578063461814fe146100f25780636775d5131461012f57806371830ae21461016c5780637c8e31b4146101955780638762e6cd146101d2578063d83c0c1d1461020f578063fc4b8a361461022b575b600080fd5b3480156100aa57600080fd5b506100c560048036036100c09190810190611b85565b610268565b005b3480156100d357600080fd5b506100dc6102a4565b6040516100e99190611edb565b60405180910390f35b3480156100fe57600080fd5b5061011960048036036101149190810190611bae565b6102b0565b6040516101269190611e97565b60405180910390f35b34801561013b57600080fd5b50610156600480360361015191908101906119cb565b61076e565b6040516101639190611edb565b60405180910390f35b34801561017857600080fd5b50610193600480360361018e9190810190611a87565b6107ba565b005b3480156101a157600080fd5b506101bc60048036036101b79190810190611b85565b610b05565b6040516101c99190611e97565b60405180910390f35b3480156101de57600080fd5b506101f960048036036101f49190810190611bae565b610f85565b6040516102069190611eb9565b60405180910390f35b610229600480360361022491908101906119f4565b611283565b005b34801561023757600080fd5b50610252600480360361024d91908101906119cb565b6115e6565b60405161025f9190611edb565b60405180910390f35b600160008281548110151561027957fe5b90600052602060002090600a020160050160006101000a81548160ff02191690831515021790555050565b60008080549050905090565b6102b8611632565b600160008373ffffffffffffffffffffffffffffffffffffffff1673ffffffffffffffffffffffffffffffffffffffff1681526020019081526020016000208381548110151561030457fe5b90600052602060002090600a02016101406040519081016040529081600082018054600181600116156101000203166002900480601f0160208091040260200160405190810160405280929190818152602001828054600181600116156101000203166002900480156103b85780601f1061038d576101008083540402835291602001916103b8565b820191906000526020600020905b81548152906001019060200180831161039b57829003601f168201915b5050505050815260200160018201548152602001600282018054600181600116156101000203166002900480601f0160208091040260200160405190810160405280929190818152602001828054600181600116156101000203166002900480156104645780601f1061043957610100808354040283529160200191610464565b820191906000526020600020905b81548152906001019060200180831161044757829003601f168201915b50505050508152602001600382018054600181600116156101000203166002900480601f0160208091040260200160405190810160405280929190818152602001828054600181600116156101000203166002900480156105065780601f106104db57610100808354040283529160200191610506565b820191906000526020600020905b8154815290600101906020018083116104e957829003601f168201915b50505050508152602001600482015481526020016005820160009054906101000a900460ff16151515158152602001600682018054600181600116156101000203166002900480601f0160208091040260200160405190810160405280929190818152602001828054600181600116156101000203166002900480156105cd5780601f106105a2576101008083540402835291602001916105cd565b820191906000526020600020905b8154815290600101906020018083116105b057829003601f168201915b50505050508152602001600782015481526020016008820160009054906101000a900473ffffffffffffffffffffffffffffffffffffffff1673ffffffffffffffffffffffffffffffffffffffff1673ffffffffffffffffffffffffffffffffffffffff16815260200160098201805480602002602001604051908101604052809291908181526020016000905b8282101561075e57838290600052602060002001805480602002602001604051908101604052809291908181526020016000905b8282101561074b578382906000526020600020018054600181600116156101000203166002900480601f0160208091040260200160405190810160405280929190818152602001828054600181600116156101000203166002900480156107375780601f1061070c57610100808354040283529160200191610737565b820191906000526020600020905b81548152906001019060200180831161071a57829003601f168201915b50505050508152602001906001019061068f565b505050508152602001906001019061065b565b5050505081525050905092915050565b6000600160008373ffffffffffffffffffffffffffffffffffffffff1673ffffffffffffffffffffffffffffffffffffffff168152602001908152602001600020805490509050919050565b60606107c4611632565b610140604051908101604052808a815260200189815260200188815260200187815260200186815260200160001515815260200185815260200160008054905081526020018473ffffffffffffffffffffffffffffffffffffffff1681526020018381525090506000819080600181540180825580915050906001820390600052602060002090600a020160009091929091909150600082015181600001908051906020019061087592919061169e565b5060208201518160010155604082015181600201908051906020019061089c92919061169e565b5060608201518160030190805190602001906108b992919061169e565b506080820151816004015560a08201518160050160006101000a81548160ff02191690831515021790555060c082015181600601908051906020019061090092919061169e565b5060e082015181600701556101008201518160080160006101000a81548173ffffffffffffffffffffffffffffffffffffffff021916908373ffffffffffffffffffffffffffffffffffffffff16021790555061012082015181600901908051906020019061097092919061171e565b50505050600160008473ffffffffffffffffffffffffffffffffffffffff1673ffffffffffffffffffffffffffffffffffffffff168152602001908152602001600020819080600181540180825580915050906001820390600052602060002090600a02016000909192909190915060008201518160000190805190602001906109fb92919061169e565b50602082015181600101556040820151816002019080519060200190610a2292919061169e565b506060820151816003019080519060200190610a3f92919061169e565b506080820151816004015560a08201518160050160006101000a81548160ff02191690831515021790555060c0820151816006019080519060200190610a8692919061169e565b5060e082015181600701556101008201518160080160006101000a81548173ffffffffffffffffffffffffffffffffffffffff021916908373ffffffffffffffffffffffffffffffffffffffff160217905550610120820151816009019080519060200190610af692919061171e565b50505050505050505050505050565b610b0d611632565b600082815481101515610b1c57fe5b90600052602060002090600a02016101406040519081016040529081600082018054600181600116156101000203166002900480601f016020809104026020016040519081016040528092919081815260200182805460018160011615610100020316600290048015610bd05780601f10610ba557610100808354040283529160200191610bd0565b820191906000526020600020905b815481529060010190602001808311610bb357829003601f168201915b5050505050815260200160018201548152602001600282018054600181600116156101000203166002900480601f016020809104026020016040519081016040528092919081815260200182805460018160011615610100020316600290048015610c7c5780601f10610c5157610100808354040283529160200191610c7c565b820191906000526020600020905b815481529060010190602001808311610c5f57829003601f168201915b50505050508152602001600382018054600181600116156101000203166002900480601f016020809104026020016040519081016040528092919081815260200182805460018160011615610100020316600290048015610d1e5780601f10610cf357610100808354040283529160200191610d1e565b820191906000526020600020905b815481529060010190602001808311610d0157829003601f168201915b50505050508152602001600482015481526020016005820160009054906101000a900460ff16151515158152602001600682018054600181600116156101000203166002900480601f016020809104026020016040519081016040528092919081815260200182805460018160011615610100020316600290048015610de55780601f10610dba57610100808354040283529160200191610de5565b820191906000526020600020905b815481529060010190602001808311610dc857829003601f168201915b50505050508152602001600782015481526020016008820160009054906101000a900473ffffffffffffffffffffffffffffffffffffffff1673ffffffffffffffffffffffffffffffffffffffff1673ffffffffffffffffffffffffffffffffffffffff16815260200160098201805480602002602001604051908101604052809291908181526020016000905b82821015610f7657838290600052602060002001805480602002602001604051908101604052809291908181526020016000905b82821015610f63578382906000526020600020018054600181600116156101000203166002900480601f016020809104026020016040519081016040528092919081815260200182805460018160011615610100020316600290048015610f4f5780601f10610f2457610100808354040283529160200191610f4f565b820191906000526020600020905b815481529060010190602001808311610f3257829003601f168201915b505050505081526020019060010190610ea7565b5050505081526020019060010190610e73565b50505050815250509050919050565b610f8d61177e565b600260008373ffffffffffffffffffffffffffffffffffffffff1673ffffffffffffffffffffffffffffffffffffffff16815260200190815260200160002083815481101515610fd957fe5b906000526020600020906004020160806040519081016040529081600082018054600181600116156101000203166002900480601f01602080910402602001604051908101604052809291908181526020018280546001816001161561010002031660029004801561108c5780601f106110615761010080835404028352916020019161108c565b820191906000526020600020905b81548152906001019060200180831161106f57829003601f168201915b50505050508152602001600182018054600181600116156101000203166002900480601f01602080910402602001604051908101604052809291908181526020018280546001816001161561010002031660029004801561112e5780601f106111035761010080835404028352916020019161112e565b820191906000526020600020905b81548152906001019060200180831161111157829003601f168201915b50505050508152602001600282018054600181600116156101000203166002900480601f0160208091040260200160405190810160405280929190818152602001828054600181600116156101000203166002900480156111d05780601f106111a5576101008083540402835291602001916111d0565b820191906000526020600020905b8154815290600101906020018083116111b357829003601f168201915b50505050508152602001600382018054600181600116156101000203166002900480601f0160208091040260200160405190810160405280929190818152602001828054600181600116156101000203166002900480156112725780601f1061124757610100808354040283529160200191611272565b820191906000526020600020905b81548152906001019060200180831161125557829003601f168201915b505050505081525050905092915050565b606060008381548110151561129457fe5b90600052602060002090600a02016000018054600181600116156101000203166002900480601f0160208091040260200160405190810160405280929190818152602001828054600181600116156101000203166002900480156113395780601f1061130e57610100808354040283529160200191611339565b820191906000526020600020905b81548152906001019060200180831161131c57829003601f168201915b50505050509050606060008481548110151561135157fe5b90600052602060002090600a02016006018054600181600116156101000203166002900480601f0160208091040260200160405190810160405280929190818152602001828054600181600116156101000203166002900480156113f65780601f106113cb576101008083540402835291602001916113f6565b820191906000526020600020905b8154815290600101906020018083116113d957829003601f168201915b5050505050905061140561177e565b608060405190810160405280888152602001878152602001848152602001838152509050600260008573ffffffffffffffffffffffffffffffffffffffff1673ffffffffffffffffffffffffffffffffffffffff168152602001908152602001600020819080600181540180825580915050906001820390600052602060002090600402016000909192909190915060008201518160000190805190602001906114b092919061169e565b5060208201518160010190805190602001906114cd92919061169e565b5060408201518160020190805190602001906114ea92919061169e565b50606082015181600301908051906020019061150792919061169e565b505050506060600260405190808252806020026020018201604052801561154257816020015b606081526020019060019003908161152d5790505b5090508781600081518110151561155557fe5b906020019060200201819052508681600181518110151561157257fe5b9060200190602002018190525060008681548110151561158e57fe5b90600052602060002090600a02016009018190806001815401808255809150509060018203906000526020600020016000909192909190915090805190602001906115da9291906117a7565b50505050505050505050565b6000600260008373ffffffffffffffffffffffffffffffffffffffff1673ffffffffffffffffffffffffffffffffffffffff168152602001908152602001600020805490509050919050565b6101406040519081016040528060608152602001600081526020016060815260200160608152602001600081526020016000151581526020016060815260200160008152602001600073ffffffffffffffffffffffffffffffffffffffff168152602001606081525090565b828054600181600116156101000203166002900490600052602060002090601f016020900481019282601f106116df57805160ff191683800117855561170d565b8280016001018555821561170d579182015b8281111561170c5782518255916020019190600101906116f1565b5b50905061171a9190611807565b5090565b82805482825590600052602060002090810192821561176d579160200282015b8281111561176c57825182908051906020019061175c92919061182c565b509160200191906001019061173e565b5b50905061177a919061188c565b5090565b608060405190810160405280606081526020016060815260200160608152602001606081525090565b8280548282559060005260206000209081019282156117f6579160200282015b828111156117f55782518290805190602001906117e592919061169e565b50916020019190600101906117c7565b5b50905061180391906118b8565b5090565b61182991905b8082111561182557600081600090555060010161180d565b5090565b90565b82805482825590600052602060002090810192821561187b579160200282015b8281111561187a57825182908051906020019061186a92919061169e565b509160200191906001019061184c565b5b50905061188891906118b8565b5090565b6118b591905b808211156118b157600081816118a891906118e4565b50600101611892565b5090565b90565b6118e191905b808211156118dd57600081816118d49190611905565b506001016118be565b5090565b90565b508054600082559060005260206000209081019061190291906118b8565b50565b50805460018160011615610100020316600290046000825580601f1061192b575061194a565b601f0160209004906000526020600020908101906119499190611807565b5b50565b60006119598235611fec565b905092915050565b600082601f830112151561197457600080fd5b813561198761198282611f23565b611ef6565b915080825260208301602083018583830111156119a357600080fd5b6119ae838284612008565b50505092915050565b60006119c38235611ffe565b905092915050565b6000602082840312156119dd57600080fd5b60006119eb8482850161194d565b91505092915050565b60008060008060808587031215611a0a57600080fd5b600085013567ffffffffffffffff811115611a2457600080fd5b611a3087828801611961565b945050602085013567ffffffffffffffff811115611a4d57600080fd5b611a5987828801611961565b9350506040611a6a878288016119b7565b9250506060611a7b8782880161194d565b91505092959194509250565b600080600080600080600060e0888a031215611aa257600080fd5b600088013567ffffffffffffffff811115611abc57600080fd5b611ac88a828b01611961565b9750506020611ad98a828b016119b7565b965050604088013567ffffffffffffffff811115611af657600080fd5b611b028a828b01611961565b955050606088013567ffffffffffffffff811115611b1f57600080fd5b611b2b8a828b01611961565b9450506080611b3c8a828b016119b7565b93505060a088013567ffffffffffffffff811115611b5957600080fd5b611b658a828b01611961565b92505060c0611b768a828b0161194d565b91505092959891949750929550565b600060208284031215611b9757600080fd5b6000611ba5848285016119b7565b91505092915050565b60008060408385031215611bc157600080fd5b6000611bcf858286016119b7565b9250506020611be08582860161194d565b9150509250929050565b611bf381611fa4565b82525050565b6000611c0482611f69565b80845260208401935083602082028501611c1d85611f4f565b60005b84811015611c56578383038852611c38838351611c67565b9250611c4382611f8a565b9150602088019750600181019050611c20565b508196508694505050505092915050565b6000611c7282611f74565b80845260208401935083602082028501611c8b85611f5c565b60005b84811015611cc4578383038852611ca6838351611ce4565b9250611cb182611f97565b9150602088019750600181019050611c8e565b508196508694505050505092915050565b611cde81611fb6565b82525050565b6000611cef82611f7f565b808452611d03816020860160208601612017565b611d0c8161204a565b602085010191505092915050565b6000610140830160008301518482036000860152611d388282611ce4565b9150506020830151611d4d6020860182611e88565b5060408301518482036040860152611d658282611ce4565b91505060608301518482036060860152611d7f8282611ce4565b9150506080830151611d946080860182611e88565b5060a0830151611da760a0860182611cd5565b5060c083015184820360c0860152611dbf8282611ce4565b91505060e0830151611dd460e0860182611e88565b50610100830151611de9610100860182611bea565b50610120830151848203610120860152611e038282611bf9565b9150508091505092915050565b60006080830160008301518482036000860152611e2d8282611ce4565b91505060208301518482036020860152611e478282611ce4565b91505060408301518482036040860152611e618282611ce4565b91505060608301518482036060860152611e7b8282611ce4565b9150508091505092915050565b611e9181611fe2565b82525050565b60006020820190508181036000830152611eb18184611d1a565b905092915050565b60006020820190508181036000830152611ed38184611e10565b905092915050565b6000602082019050611ef06000830184611e88565b92915050565b6000604051905081810181811067ffffffffffffffff82111715611f1957600080fd5b8060405250919050565b600067ffffffffffffffff821115611f3a57600080fd5b601f19601f8301169050602081019050919050565b6000602082019050919050565b6000602082019050919050565b600081519050919050565b600081519050919050565b600081519050919050565b6000602082019050919050565b6000602082019050919050565b6000611faf82611fc2565b9050919050565b60008115159050919050565b600073ffffffffffffffffffffffffffffffffffffffff82169050919050565b6000819050919050565b6000611ff782611fc2565b9050919050565b6000819050919050565b82818337600083830152505050565b60005b8381101561203557808201518184015260208101905061201a565b83811115612044576000848401525b50505050565b6000601f19601f830116905091905056fea265627a7a7230582088d84a18b3b4eb925f51e5a75edee6c4e950d35bf3a657f0b40ada5e59caf5cf6c6578706572696d656e74616cf50037",
  "source": "// SPDX-License-Identifier: MIT\npragma solidity >= 0.4.21 <0.7.0;\npragma experimental ABIEncoderV2;\n\ncontract Main {\n    \n\n    //make a constructor that saves the creator to a variable\n    \n    struct RentInfo{\n        string location;\n        uint numGuests;\n        string startDate;\n        string endDate;\n        uint price;\n        bool expired;\n        string passCode;\n        uint id;\n        address renterAddress;\n        string[][] Rents;\n        \n    }\n    \n    struct RentOutInfo{\n        string startDate;\n        string endDate;\n        string location;\n        string passCode;\n    }\n    \n    RentInfo[] Rents;\n    mapping(address => RentInfo[]) personalRentables;\n    mapping(address => RentOutInfo[]) personalRents;\n    \n    function createRentable(string memory location, uint numGuests, string memory startDate, string memory endDate, uint price, string memory passCode, address _address) public {\n        string[][] memory emptyArr;\n        RentInfo memory rent = RentInfo(location, numGuests, startDate, endDate, price, false, passCode, Rents.length, _address, emptyArr);\n        Rents.push(rent);\n        personalRentables[_address].push(rent);\n    }\n\n    \n    function rent(string memory startDate, string memory endDate, uint id, address _address) public payable {\n        string memory location = Rents[id].location;\n        string memory passCode = Rents[id].passCode;\n        RentOutInfo memory filledRentOutInfo = RentOutInfo(startDate, endDate, location, passCode);\n        personalRents[_address].push(filledRentOutInfo);\n        \n        string[] memory arr = new string[](2);\n        arr[0] = startDate;\n        arr[1] = endDate;\n        Rents[id].Rents.push(arr);\n    }\n    \n    function takeDownRentable(uint _index) public {\n        Rents[_index].expired = true;\n    }\n    \n    function getRents(uint _index) public view returns (RentInfo memory) {\n        return (Rents[_index]);\n    }\n    \n    function getPersonalRents(uint _index, address _address) public view returns (RentOutInfo memory) {\n        return (personalRents[_address][_index]);\n    }\n    \n    function getPersonalRentables(uint _index, address _address) public view returns (RentInfo memory) {\n        return (personalRentables[_address][_index]);\n    }\n    \n    //Get counts\n    function getRentCount() public view returns (uint) {\n        return (Rents.length);\n    }\n    \n    function getPersonalRentCount(address _address) public view returns (uint) {\n        return (personalRents[_address].length);\n    }\n    \n    function getPersonalRentablesCount(address _address) public view returns (uint) {\n        return (personalRentables[_address].length);\n    }\n}",
  "sourcePath": "C:/code/AtlasHacks/contracts/Main.sol",
  "compiler": {
    "name": "solc",
    "version": "0.5.0+commit.1d4f565a.Emscripten.clang"
  },
  "schemaVersion": "3.0.1",
  "updatedAt": "2020-06-28T22:39:17.321Z",
  "devdoc": {
    "methods": {}
  },
  "userdoc": {
    "methods": {}
  }
}